:020000040800F2
:1000000000000520F9020008C77B0008C97B000832
:10001000CB7B0008CD7B0008CF7B000800000000F0
:1000200000000000000000000000000009040008BB
:10003000D17B00080000000011040008B957000837
:1000400025040008250400082504000825040008EC
:1000500025040008250400082504000825040008DC
:1000600025040008250400082504000825040008CC
:1000700025040008250400082504000825040008BC
:1000800025040008250400082504000825040008AC
:10009000250400082504000825040008250400089C
:1000A000250400082504000825040008250400088C
:1000B00025040008856D0008956D000825040008DA
:1000C000250400082504000825040008250400086C
:1000D000250400082504000825040008250400085C
:1000E000250400082504000825040008250400084C
:1000F000250400082504000825040008250400083C
:10010000250400082504000825040008250400082B
:10011000250400082504000825040008250400081B
:10012000250400082504000825040008250400080B
:1001300025040008250400082504000825040008FB
:1001400025040008250400082504000825040008EB
:1001500025040008250400082504000825040008DB
:1001600025040008250400082504000825040008CB
:1001700025040008250400082504000800000000EC
:1001800025040008250400082504000825040008AB
:10019000250400082504000825040008250400089B
:1001A000250400082504000825040008250400088B
:1001B000250400082504000825040008250400087B
:1001C000250400082504000800B583B003F00EFDE7
:1001D000384B394A1360394A1360394906E01168CF
:1001E0001960043304329842F9D82146354B9942BC
:1001F00005D20A684B6801F10C048868F3E72E4BBE
:100200001A68314B9A4200D0FEE72C4B1A682F4BEC
:100210009A42F9D1274B2E4A13602E4A13602E4B77
:1002200005E00020106004329342FAD80B462B4AB6
:10023000934204D2194651F8082B5B68F4E7244B2B
:100240001B6813B9234B1B6803B1FEE704F04AFB9C
:10025000694601A803F05CFC214B224CE41AA4106F
:100260000025AC4214DC204B204CE41AA4100025DD
:10027000AC4213DC0099019807F0E8FA05461C4BE4
:100280001C4CE41AA410002C0EDC284603F012FCCF
:10029000134B53F8253098470135E2E7124B53F8DA
:1002A000253098470135E3E7013C114B53F82430E2
:1002B0009847E8E7BABADECA00000020CC41002027
:1002C0002804000840040008785634123254769806
:1002D000D0410020B48600204004000850040008EB
:1002E000500400085004000850040008500400089E
:1002F000500400085004000808B5FFF765FF00BE71
:10030000FEE71EF0040F0CBFEFF30880EFF3098047
:100310007146414A10472DE9F04182B004468846B3
:10032000124B5E6B9F6B9D6A1B6B13F0020F03D029
:100330000E4BDB6A002B0CDB0D4803F0FBFBCDF80A
:1003400000803B4632462946204603F061FC00BE51
:10035000FEE74BF6AB6103F0D5FC0028ECD04FF084
:100360000042024BDA6202B0BDE8F08100ED00E02D
:10037000D4A5000800BEFEE71EF0040F0CBFEFF38B
:100380000880EFF309807146244A10472DE9F041B7
:1003900082B004468846084B5E6B9F6B9D6A074897
:1003A00003F0C8FBCDF800803B4632462946204684
:1003B00003F02EFC00BEFEE700ED00E0E4A500081F
:1003C0001EF0040F0CBFEFF30880EFF309807146B5
:1003D000134A10472DE9F04182B004468846084B85
:1003E0005E6B9F6B9D6A074803F0A4FBCDF800800D
:1003F0003B4632462946204603F00AFC00BEFEE793
:1004000000ED00E0F0A5000800BEFEE700BEFEE73C
:1004100000BEFEE770470000170300088D030008C8
:08042000D503000800BEFEE751
:10042800882F010800000020D0410020882F0108F3
:100438000000001000000010D0410020B886002005
:0804480000000010000000108C
:1004500010B5044602F03EF8064BA3FB00308009BD
:1004600000F028FC002221464FF0FF3000F0CAFBCC
:10047000002010BDD34D621008B5032000F0A4FB8E
:100480000020FFF7E5FF07F09DFB002008BD0000FE
:10049000024A136801331360704700BFD441002043
:1004A000014B1868704700BFD441002010B50446C6
:1004B000514B5A6822F440325A605A6841680A43E4
:1004C0005A600268536823F480735360026853686B
:1004D000016943EA012353600268536823F04073C3
:1004E00053600268536881680B43536002689368E5
:1004F00023F40063936002689368C1680B439360C0
:10050000826A3E4B9A425FD00268936823F0706320
:10051000936002689368816A0B43936002689368F2
:1005200023F04053936002689368C16A0B43936061
:100530002268936823F00203936022689368A1699C
:1005400043EA41039360236A002B4ED0636A013B68
:10055000072B44D82268536843F400635360226831
:10056000536823F460435360636A013B4FF4604275
:1005700092FAA2F2B2FA82F29340226851680B43D7
:1005800053602268D36A23F47003D3622168CB6A74
:10059000E269013A43EA0253CB622268936823F48A
:1005A0000073936022689368216B43EA4123936050
:1005B0002268936823F4806393602268936861697A
:1005C00043EA8123936010BD0268936823F070634F
:1005D00093600268936823F040539360A8E740F269
:1005E0000F61074803F09CFAB4E72268536823F4CC
:1005F00000635360C5E700BF002301400100000F06
:10060000B0A2000870470000002800F0E18010B59B
:10061000044603686F4A70498B4218BF934208D062
:1006200002F58072934204D04FF487716B4803F057
:1006300077FA6368002B18BFB3F5803F0AD0B3F593
:10064000003F07D0B3F5403F04D040F20F1163489C
:1006500003F066FAA368002B18BFB3F1807F0AD0BD
:10066000B3F1007F07D0B3F1407F04D04FF488711D
:100670005A4803F055FA2369012B04D940F21111AD
:10068000564803F04DFAA369012B04D94FF4897140
:10069000524803F045FAA36A002B18BFB3F1807FDC
:1006A0002ED0B3F1007F2BD0B3F1407F28D0B3F12F
:1006B000806F25D0B3F1A06F22D0B3F1C06F1FD0EF
:1006C000B3F1E06F1CD0B3F1006F19D0B3F1106F2C
:1006D00016D0B3F1206F13D0B3F1306F10D0B3F157
:1006E000406F0DD0B3F1506F0AD0B3F1706F07D0E7
:1006F0003B4A934204D040F21311384803F010FAF9
:10070000E368002B18BFB3F5006F36D1E369013BF6
:100710000F2B38D8236B012B04D94FF48B712F4842
:1007200003F0FEF96369022B33D8236A012B04D945
:100730004FF48C71294803F0F3F9A26A284B9A42CE
:1007400010D0E36A002B18BFB3F1805F0AD0B3F179
:10075000005F07D0B3F1405F04D04FF48E711F48A3
:1007600003F0DEF9236CD3B1236C13F0100F1DD00E
:100770000120002384F83C3010BD4FF48A711748E3
:1007800003F0CEF9C2E740F21511144803F0C8F99E
:10079000C0E740F21711114803F0C2F9C5E76364DE
:1007A00084F83C302046FFF72DFFDDE7226C0D4B2F
:1007B000134043F0020323642046FFF777FE002036
:1007C0006064236C23F0030343F001032364D0E748
:1007D000012070470021014000200140B0A2000824
:1007E0000100000FFDEEFFFF10B582B004460023AC
:1007F00001938369012B04D94FF4DD71414803F063
:100800008FF9E36A002B18BFB3F1805F0AD0B3F110
:10081000005F07D0B3F1405F04D040F2BB1139480C
:1008200003F07EF994F83C30012B61D0012384F869
:100830003C3023689A6812F0010F13D19A6842F095
:1008400001029A60304B1B68304AA2FB03239B0CC9
:1008500003EB4303019302E0019B013B0193019BE6
:10086000002BF9D12268936813F0010F43D0216C5B
:10087000274B0B4043F480732364536813F4806F59
:1008800005D0236C23F4405343F480532364236C3A
:1008900013F4805F19D0636C23F0060363640023B4
:1008A00084F83C306FF0020313601A4B5B6813F05E
:1008B0001F0F0DD123689A6812F0405F1DD19A680E
:1008C00042F080429A60002013E000236364E6E770
:1008D0002368114A934201D000200AE09A6812F07E
:1008E000405F0CD19A6842F080429A60002000E09C
:1008F000022002B010BD0020FBE70020F9E7002035
:10090000F7E700BFB0A200080C00002083DE1B4305
:10091000FEF8FFFF002301400020014003689A68B1
:1009200012F4806F03D09B6813F4807F1CD170B5E4
:100930000D460446FFF7B4FD064623681A6812F018
:10094000020F1AD1B5F1FF3FF7D025B1FFF7A8FD8F
:10095000801B8542F1D2236C43F0040323640023FF
:1009600084F83C30032070BD036C43F02003036423
:10097000002380F83C30012070476FF012021A60AB
:10098000236C43F40073236423689A6812F0405F79
:1009900017D1A269BAB9DA6A12F4700F03D09B6852
:1009A00013F4806F11D1236C23F480732364236CC0
:1009B00013F4805F0BD1236C43F001032364002008
:1009C00070BD002070BD002070BD002070BD0020F3
:1009D00070BD0368D86C704730B583B005460C46CF
:1009E000002301930B68714A934218BF122B2DD834
:1009F0006368013B0F2B2FD8A368072B32D895F8DB
:100A00003C30012B00F0D080012385F83C30236876
:100A1000092B34D92868C2689BB203EB43031E3B01
:100A2000072101FA03F322EA0303C36023685F4A44
:100A300093421DD02868C268A1689BB203EB4303B0
:100A40001E3B01FA03F31343C3602DE040F2FB4168
:100A5000574803F065F8CBE740F2FC41544803F0F7
:100A60005FF8C9E740F2FD41514803F059F8C6E785
:100A70002A68D368A16843EA0163D36014E0286858
:100A800002699BB203EB4303072101FA03F322EA55
:100A90000303036128680269A168238803EB430309
:100AA00001FA03F3134303616368062B22D8286815
:100AB000426B03EB8303053B1F2101FA03F322EA98
:100AC000030343632868426B636803EB8303053BBE
:100AD000218801FA03F3134343632A68354B9A4292
:100AE00038D02A68334B9A423DD0002085F83C002C
:100AF00003B030BD0C2B16D82868026B03EB8303C0
:100B0000233B1F2101FA03F322EA0303036328684E
:100B1000026B636803EB8303233B218801FA03F331
:100B200013430363D9E72868C26A03EB8303413B9D
:100B30001F2101FA03F322EA0303C3622868C26A91
:100B4000636803EB8303413B218801FA03F31343FA
:100B5000C362C2E72368122BC3D1174A536843F418
:100B600080035360BDE72368104A112B18BF9342DE
:100B7000BBD1114A536843F40003536022680B4B06
:100B80009A42B2D10D4B1B680D4AA2FB03239B0C6A
:100B900003EB83035A00019202E0019B013B0193A6
:100BA000019B002BF9D1A0E70220A1E71200001061
:100BB000B0A2000800200140002301400C000020EA
:100BC00083DE1B43006C704710B50446C31E042B24
:100BD0000DD8094AD36823F4E0631B041B0C2402DC
:100BE00004F4E0641C43054B2343D36010BDA421EF
:100BF000034802F095FFECE700ED00E00000FA0585
:100C0000E0A2000870B505460C4616460F2A20D80B
:100C10000F2C23D8184BDB68C3F30223C3F1070260
:100C2000042A28BF0422191D06291CD9033B0121CF
:100C300001FA02F2013A14409C4001FA03F3013B2D
:100C400033401C43002D10DB2401E4B20B4B5C55F8
:100C500070BDBC210A4802F063FFD9E7BD210848F6
:100C600002F05EFFD6E70023E1E705F00F0524015F
:100C7000E4B2044B5C5570BD00ED00E000E400E020
:100C8000E0A2000814ED00E010B5041E09DB6209C3
:100C900004F01F04012303FA04F4044B43F8224038
:100CA00010BDD021024802F03BFFF0E700E100E078
:100CB000E0A200080138B0F1807F0AD2064B5860EC
:100CC000F021064A82F823100020986007221A605B
:100CD00070470120704700BF10E000E000ED00E029
:100CE00010B50446042818BF002807D1042C0BD0E7
:100CF000084A136823F00403136010BD40F2B311D7
:100D0000054802F00DFFF1E7024A136843F00403BF
:100D1000136010BD10E000E0E0A200087047000082
:100D2000B8B110B5044602680B4B9A4203D0EE21CD
:100D30000A4802F0F5FE237933B102232371002023
:100D400020610123237110BD63712046FFF7E6FF88
:100D5000F3E70120704700BF0074004014A30008AF
:100D600038B504460D46002918BF102921D16379F2
:100D7000012B36D0012363710222227121680A6897
:100D8000AB4013430B60D5B922681168136803F0B8
:100D90003803382B14BF0023012313EA910303D037
:100DA000536843F0010353600123237100206071F5
:100DB00038BD4FF4B7710C4802F0B2FED7E7226895
:100DC0001168136803F46013B3F5601F14BF0023A8
:100DD000012313EA9143E7D0536843F002035360C1
:100DE000E2E7022038BD00BF14A3000870B5044636
:100DF0000E4615460B68002B18BF242B12D00C2B67
:100E000010D0142B0ED01C2B0CD0042B0AD02C2B62
:100E100008D0342B06D03C2B04D040F20E311D48B4
:100E200002F07EFE7368002B18BF022B23D1002D29
:100E300018BF102D25D16379012B28D001216171B4
:100E4000022323712068036840F6FE72AA4023EA59
:100E50000203326876683243AA4013430360206875
:100E60000368C02202FA05F523EA05050560217131
:100E70000020607170BD40F20F31064802F050FE54
:100E8000D5E74FF44471034802F04AFED3E702204D
:100E900070BD00BF14A30008F0B583B00746144628
:100EA0001D46002301930E46994218BF10291AD1FE
:100EB000002C18BF042C06D0082C04D040F2473177
:100EC000114802F02DFE4FF6F0739D4211D83B6899
:100ED0000193A6B1019B1C4414340194019B1D6035
:100EE000002003B0F0BD40F24631074802F018FE82
:100EF000DEE74FF45271044802F012FEE7E7019B6F
:100F00001C4408340194E9E714A300082DE9F047D4
:100F100082B080460F46B44BB44A904218BF984204
:100F20002BD003F50063C31A18BF012302F500623A
:100F3000904222D00BB3AE4BC31A18BF012302F567
:100F40000062904219D0C3B1AA4BC31A18BF012343
:100F500002F50062904210D07BB1A74BC31A18BFB4
:100F6000012302F50062904207D033B1A34B9842AF
:100F700003D0C321A24802F0D3FD3B8853B37B6862
:100F8000112B18BF012B20D9022B1ED0122B1CD0E5
:100F90009C4A934219D002F58012934215D002F573
:100FA0008012934211D0A2F5F81293420DD002F5AF
:100FB0008012934209D002F58012934205D0032B90
:100FC00003D0C5218E4802F0ABFDBB68022B06D8CA
:100FD0000025CCE0C4218A4802F0A2FDCFE7C6215B
:100FE000874802F09DFDF3E7E908083158F8213001
:100FF00005F0070292000F20904023EA00033869B1
:1010000000FA02F2134348F82130D8F800304FEAD2
:10101000450A032606FA0AF6F64333407A6802F0D8
:10102000030202FA0AF21343C8F800307B685A1E22
:10103000112B18BF012A01D9122B17D1FB68032BE2
:1010400000F2B580D8F808303340FA6802FA0AF2A4
:101050001343C8F80830D8F8043023EA04047B6846
:10106000C3F30013AB401C43C8F80440D8F80C305D
:101070001E40BB6803FA0AF31E43C8F80C607B6885
:1010800013F0805F72D0002301935F4B5A6C42F4DF
:1010900080425A645B6C03F480430193019BAB086C
:1010A000991C5A4A52F8212005F003018C000F21A7
:1010B000A14022EA01024D4880457FD04A49884537
:1010C0007ED001F5806188457CD001F5806188453E
:1010D0007AD001F58061884578D001F58061884536
:1010E00076D001F58061884574D001F5806188452E
:1010F00072D001F58061884570D001F58061884526
:101100005AD00A21A1400A430233404941F8232022
:101110003F4B1A686FEA090302EA0301786810F48A
:10112000803F01D049EA0201394A1160526803EA5E
:101130000201786810F4003F01D049EA0201344A04
:101140005160926803EA0201786810F4801F01D0B0
:1011500049EA02012E4A9160D2681340796811F47D
:10116000001F01D049EA0203294AD36001350F2D3F
:1011700036D80124AC403B6804EA03094C45F5D15C
:101180007B68122B18BF022B7FF43FAF3B690F2BFC
:1011900018BF0C2B7FF628AF0D2B3FF425AF0E2B7D
:1011A0003FF422AFD721164802F0BAFC1CE7EB212E
:1011B000134802F0B5FC45E70921A3E70021A1E7A8
:1011C00001219FE702219DE703219BE7042199E785
:1011D000052197E7062195E7072193E7082191E785
:1011E00002B0BDE8F08700BF0004024000000240EA
:1011F00000140240001C024000240240002802406B
:1012000044A30008000011100038024000380140DB
:10121000003C014038B505460C4621B12B691C4203
:1012200007D1002038BD40F28D11034802F078FC50
:10123000F4E7012038BD00BF44A3000870B506469E
:1012400015460C4651B1012D04D94FF4D77107480A
:1012500002F066FC45B92404B46170BD40F2AD11E2
:10126000024802F05DFCEEE7B46170BD44A30008E3
:101270002DE9F04180460E4617461D46069C036840
:10128000234A24498B4218BF93420CD002F5806256
:10129000934208D002F58062934204D041F2590192
:1012A0001D4802F03DFCB5F1807F18BFB5F1007F0D
:1012B00000D035BBB4F5804F18BFB4F5105F0BD02C
:1012C000231C18BF0123B4F5005F05D023B141F200
:1012D0005B01114802F024FCD8F80020536823F089
:1012E0007F7323F4593323F47F7323F00303C6F38E
:1012F000090646EA074635432C431C435460BDE8C3
:10130000F08141F25A01044802F00AFCD2E700BF22
:10131000005800400054004074A3000870B5044613
:101320000D46FFF7BDF8064623689B6913F0100FC2
:1013300015D023689A6912F0200F12D1B5F1FF3F42
:10134000F7D025B1FFF7ACF8801B8542F1D201231D
:1013500084F83530002384F83430032070BD002039
:1013600070BD1022DA6123682022DA6123689A694D
:1013700012F0010F01D10122DA612268536823F0D3
:10138000FF7323F48B3323F4FF7323F001035360C3
:101390000423A363012084F83500002384F834304B
:1013A00070BD70B504460D46FFF77AF8064623680F
:1013B0009B6913F0020F19D129462046FFF7AEFFB3
:1013C000B0B9B5F1FF3FF2D025B1FFF769F8801B46
:1013D0008542ECD2A36B43F02003A363012384F87E
:1013E0003530002384F83430032070BD002070BDF8
:1013F000012070BD2DE9F04105460E4690461C4681
:10140000FFF74EF80746B8F1000F18D02B689B691C
:1014100026EA0303C3F310036BBBB4F1FF3FF5D01F
:1014200024B1FFF73DF8C01B8442EFD2012385F8B9
:101430003530002385F834300320BDE8F0812B6877
:101440009B6926EA0303C3F310038BB1B4F1FF3F9A
:10145000F5D024B1FFF724F8C01B8442EFD201235A
:1014600085F83530002385F834300320BDE8F0815D
:101470000020BDE8F0810020BDE8F08170B5054690
:101480000C46FFF70DF806462B689B6913F0200FFA
:1014900016D121462846FFF741FF98B924B1FEF73F
:1014A000FFFF801B8442EFD2AB6B43F02003AB63A2
:1014B000012385F83530002385F83430032070BDD2
:1014C000002070BD012070BD70B504460D46FEF7CA
:1014D000E7FF064623689B6913F0040F30D12946C5
:1014E0002046FFF71BFF68BB23689A6912F0200FA4
:1014F00011D125B1FEF7D4FF801B8542EAD2A36B40
:1015000043F02003A363012384F83530002384F8DB
:101510003430032070BD2022DA612268536823F042
:10152000FF7323F48B3323F4FF7323F00103536021
:101530000023A363012084F8350084F8343070BDA3
:10154000002070BD012070BD002800F0AE8010B5F5
:1015500004460368564A57498B4218BF93420CD041
:1015600002F58062934208D002F58062934204D073
:1015700040F22B11504802F0D3FAA368B3F5806F04
:101580005FD2E368013B012B04D940F22D114A4898
:1015900002F0C6FA2369002B18BFB3F5004F56D1ED
:1015A0006369FF2B59D8A369072B5CD8E369002B2B
:1015B00018BFB3F5002F5CD1236A002B18BFB3F519
:1015C000003F5CD194F83530002B5ED0022384F8C4
:1015D00035302268136823F00103136022686368C2
:1015E00023F0706313612268936823F400439360CF
:1015F000A36833B1E268012A4DD0226843F4044362
:101600009360E368022B4BD0226851682B4B0B434D
:1016100053602268236961690B43A16943EA01238E
:10162000D3602268E369216A0B4313602268136860
:1016300043F0010313600020A063012384F83530D8
:1016400010BD4FF496711C4802F06AFA99E74FF406
:101650009771194802F064FAA2E740F22F11164878
:1016600002F05EFA9FE74FF49871134802F058FABF
:101670009CE740F23111104802F052FA9CE74FF417
:1016800099710D4802F04CFA9CE784F834302046FA
:1016900003F022FD9AE7226843F400439360B0E729
:1016A00023684FF400625A60AEE70120704700BF24
:1016B000005800400054004074A30008008000025D
:1016C0007047000038B310B504460368134A144944
:1016D0008B4218BF93420CD002F58062934208D02F
:1016E00002F58062934204D040F27D110D4802F071
:1016F00017FA022384F835302268136823F00103B7
:1017000013602046FFF7DCFF0020A06384F835005B
:1017100084F8340010BD0120704700BF005800401D
:101720000054004074A300082DE9F04383B01D4627
:1017300090F83530DBB2012B04D00223184603B0F9
:10174000BDE8F08304460F461646002D18BF002A58
:1017500000F08E8003689B6913F4004F01D00223D0
:10176000ECE790F83430012B00F08480012380F8FE
:101770003430122380F8353000238363FF2D0AD9DB
:101780004FF4005300934FF08073FF22FFF770FD7A
:101790004FF0FF081CE04FF4005300934FF000732C
:1017A000EAB2FFF765FDA84612E0A36B042B01D057
:1017B0000323C3E70123C1E7002300934FF0007325
:1017C000EAB239462046FFF753FDA84675B34E46A8
:1017D0000A992046FFF7E5FD0028E6D1236806F1C7
:1017E000010932789A62013DADB2B8F101080CBF2F
:1017F00001230023002D0CBF002303F00103002B65
:10180000E4D00A9B002280212046FFF7F3FD98BB1D
:10181000FF2DD1D9002300934FF08073FF2239466A
:101820002046FFF725FD4FF0FF08CFE70A99204635
:10183000FFF724FE034630B1A36B042B01D0032332
:101840007CE701237AE722682021D16121684A6878
:1018500022F0FF7222F48B3222F4FF7222F0010296
:101860004A60012284F83520002284F8342065E79C
:10187000012363E7022361E703235FE72DE9F043D8
:1018800083B01D4690F83530DBB2012B04D0022323
:10189000184603B0BDE8F08304460F461646002DF7
:1018A00018BF002A00F08E8003689B6913F4004F74
:1018B00001D00223ECE790F83430012B00F0848053
:1018C000012380F83430222380F8353000238363ED
:1018D000FF2D0AD94FF4105300934FF08073FF226D
:1018E000FFF7C6FC4FF0FF081CE04FF410530093C5
:1018F0004FF00073EAB2FFF7BBFCA84612E0A36BFF
:10190000042B01D00323C3E70123C1E70023009385
:101910004FF00073EAB239462046FFF7A9FCA8460B
:1019200075B34E4604212046FFF7CEFD0028E6D1D0
:1019300006F1010923685B6A3370013DADB2B8F16D
:1019400001080CBF01230023002D0CBF002303F06E
:101950000103002BE4D00A9B002280212046FFF7E0
:1019600049FD98BBFF2DD1D9002300934FF0807320
:10197000FF2239462046FFF77BFC4FF0FF08CFE7F8
:1019800019212046FFF77AFD034630B1A36B042BE3
:1019900001D003237CE701237AE722682021D1616B
:1019A00021684A6822F0FF7222F48B3222F4FF721F
:1019B00022F001024A60012284F83520002284F8D6
:1019C000342065E7012363E7022361E703235FE730
:1019D0002DE9F04782B00024019490F83540E4B23C
:1019E000012C04D00223184602B0BDE8F087046839
:1019F000A46914F4004F01D00223F4E790F83440B6
:101A0000012C00F084801F4690468946064601233B
:101A100080F83430022380F83530002383631EE0E1
:101A2000C9F309013D4B0B4321E0AB6913F0100FE3
:101A300041D03B46002220213046FFF7DBFC002846
:101A400067D133681022DA6133682022DA61019BA2
:101A50005A1C0192434542D0019B98454FD93268A8
:101A6000F368012BDCD0C9F3090343F4205353601E
:101A7000FEF716FD82463568AB6913F0200FD4D10E
:101A8000AB6913F0100FD0D196F83540E4B2032CB7
:101A9000CBD0B7F1FF3FEED02FB1FEF701FDA0EBA9
:101AA0000A008742E7D2012386F83530002386F802
:101AB0003430032397E73B46002220213046FFF7CE
:101AC00099FC034608B103238DE732682021D161D8
:101AD000012286F83520002286F8342083E7326818
:101AE000536843F4804353603B4600222021304634
:101AF000FFF780FC78B933682022DA61ACE7012374
:101B000086F83530002386F8343003236BE7022350
:101B100069E7032367E7032365E700BF00200002AE
:101B2000054A136843F002031360044A136943F043
:101B30000403136130BF70470070004000ED00E007
:101B400010B582B0002301931B4B1A6C42F08052F7
:101B50001A641B6C03F080530193019B174A1368AE
:101B600043F480331360FEF79BFC0446134B5B6821
:101B700013F4803F08D1FEF793FC001BB0F57A7F89
:101B8000F4D9032002B010BD0C4A136843F40033AB
:101B90001360FEF785FC0446084B5B6813F4003FB6
:101BA00007D1FEF77DFC001BB0F57A7FF4D9032046
:101BB000E8E70020E6E700BF003802400070004080
:101BC00030B583B0044603680F2B3AD8236813F06E
:101BD000010F4AD06368002B18BFB3F5803F07D0D0
:101BE000B3F5A02F04D04FF483719D4801F098FF06
:101BF0009C4B9B6803F00C03042B2DD0994B9B68E6
:101C000003F00C03082B22D0964B1A6822F4803282
:101C10001A601A6822F480221A601A6822F480324C
:101C20001A60FEF73DFC05468E4B1B6813F4003F1F
:101C30004FD0FEF735FC401B6428F5D9032003B0D4
:101C400030BD4FF48071864801F06AFFBEE7854BD6
:101C50005B6813F4800FD7D0824B1B6813F4003FEE
:101C600003D06368002B00F04D82236813F0020F4D
:101C700000F09B80E368012B04D940F247117848BB
:101C800001F04EFF23691F2B6CD8764B9B6813F035
:101C90000C0F72D0734B9B6803F00C03082B67D0BA
:101CA000E368002B00F0B3806E4A136843F0010331
:101CB0001360FEF7F5FB05466A4B1B6813F0020F35
:101CC00040F09680FEF7ECFB401B6428F4D903201B
:101CD000B5E7644A136823F4803313606368B3F58F
:101CE000803F1CD0B3F5A02F23D05E4B1A6822F49E
:101CF00080221A601A6822F480321A60636813B373
:101D0000FEF7CEFB0546574B1B6813F4003FACD1E2
:101D1000FEF7C6FB401B6428F5D903208FE7134666
:101D2000126822F480221A601A6842F480321A6023
:101D3000E4E74C4B1A6842F480221A601A6842F4B5
:101D400080321A60DAE7FEF7ABFB0546454B1B68AD
:101D500013F4003F89D0FEF7A3FB401B6428F5D99C
:101D600003206CE74FF4A4713D4801F0D9FE8CE7E5
:101D70003C4B5B6813F4800F92D13A4B1B6813F015
:101D8000020F04D0E368012B01D0012057E735484A
:101D9000036823F0F8032169F82292FAA2F2B2FA5A
:101DA00082F201FA02F213430360236813F0080F72
:101DB0005AD06369012B04D94FF4C471284801F04B
:101DC000AFFE6369002B36D0264A536F43F0010300
:101DD0005367FEF765FB0546224B5B6F13F0020F5E
:101DE00042D1FEF75DFB401B6428F5D9032026E7AE
:101DF0001C48036823F0F8032169F82292FAA2F242
:101E0000B2FA82F201FA02F213430360CDE7154AF7
:101E1000136823F001031360FEF742FB0546114BE4
:101E20001B6813F0020FC0D0FEF73AFB401B64287A
:101E3000F5D9032003E70B4A536F23F001035367DF
:101E4000FEF72EFB0546074B5B6F13F0020F0BD01E
:101E5000FEF726FB401B6428F5D90320EFE600BF00
:101E6000B4A3000800380240236813F0040F00F008
:101E70009480A368052B18BF012B1FD80023019362
:101E8000A34B1A6C42F080521A641B6C03F080530F
:101E90000193019B9F4A136843F480731360FEF71C
:101EA000FFFA05469B4B1B6813F4807F0CD1FEF7AD
:101EB000F7FA401B6428F5D90320C0E64FF4D97126
:101EC000954801F02DFED9E7914B1A6F22F00102DF
:101ED0001A671A6F22F004021A671A6F22F00102C1
:101EE0001A67FEF7DDFA0546894B1B6F13F0020FE8
:101EF00008D0FEF7D5FA401B41F288339842F3D957
:101F000003209CE6824A136F23F001031367A36842
:101F1000012B1DD0052B25D07D4B1A6F22F004021A
:101F20001A671A6F22F001021A67A36823B3FEF73B
:101F3000B7FA0546764B1B6F13F0020F2DD1FEF753
:101F4000AFFA401B41F288339842F3D9032076E67A
:101F50001346126F22F004021A671A6F42F0010250
:101F60001A67E2E76A4B1A6F42F004021A671A6FA7
:101F700042F001021A67D8E7FEF792FA0546644B71
:101F80001B6F13F0020F08D0FEF78AFA401B41F2D4
:101F900088339842F3D9032051E6A369022B21D854
:101FA000A369002B00F0B080594A926802F00C023D
:101FB000082A00F0AB80022B1AD0554A136823F090
:101FC00080731360FEF76CFA0446514B1B6813F0E4
:101FD000007F00F09580FEF763FA001B6428F4D9B7
:101FE00003202CE64FF4FB714B4801F099FDD7E735
:101FF000E369002B18BFB3F5800F2ED1236A023B93
:102000003D2B30D8636A323BB3F5BF7F31D8A36A2A
:10201000022B18BF042B08D0062B06D0082B04D0A7
:1020200040F202213C4801F07BFDE36A023B0D2BAC
:1020300025D8374A136823F080731360FEF730FA0F
:102040000546334B1B6813F0007F1ED0FEF728FABD
:10205000401B6428F5D90320F1E540F2FF112E481A
:1020600001F05EFDCAE74FF400712B4801F058FD06
:10207000C8E740F20121284801F052FDC7E740F2CD
:102080000321254801F04CFDD3E7236A616A47F636
:10209000C07292FAA2F2B2FA82F201FA02F2134389
:1020A000A26A5208013A4FF4403191FAA1F1B1FA13
:1020B00081F18A401343E2691343E16A4FF0706291
:1020C00092FAA2F2B2FA82F201FA02F2134343F058
:1020D00000530F4A5360136843F080731360FEF798
:1020E000DFF904460A4B1B6813F0007F06D1FEF7A8
:1020F000D7F9001B6428F5D90320A0E500209EE550
:1021000000209CE501209AE5002098E5012096E555
:102110000038024000700040B4A3000870B50446C7
:102120000D460368013B0E2B15D80F2D19D89B4B7C
:102130001B6803F00F039D4240F2A080974A13688A
:1021400023F00F032B431360136803F00F039D422A
:102150000DD0012070BD40F26221914801F0E0FCF9
:10216000E3E740F263218E4801F0DAFCDFE7236801
:1021700013F0020F1ED0A368002B18BF802B12D0C3
:10218000902B10D0A02B0ED0B02B0CD0C02B0AD08F
:10219000D02B08D0E02B06D0F02B04D040F27921D0
:1021A0007F4801F0BDFC7F4A936823F0F003A168EB
:1021B0000B439360236813F0010F00F0F580636810
:1021C000022B27D86368012B2AD0022B2FD0754A07
:1021D000126812F0020F00F02B8172498A6822F017
:1021E000030213438B60FEF75BF905466368012B1E
:1021F00024D0022B32D06B4B9B6813F00C0F00F0F5
:10220000D380FEF74DF9401B41F288339842F2D952
:10221000032070BD4FF42071614801F081FCD1E7CB
:10222000604A126812F4003FD7D1012070BD5D4AA8
:10223000126812F0007FD0D1012070BD594B9B680D
:1022400003F00C03042B00F0AF80FEF729F9401BCC
:1022500041F288339842F1D9032070BD514B9B68FD
:1022600003F00C03082B00F09F80FEF719F9401BC8
:1022700041F288339842F1D9032070BD236813F0EE
:10228000020F1ED0A368002B18BF802B12D0902BFA
:1022900010D0A02B0ED0B02B0CD0C02B0AD0D02B3E
:1022A00008D0E02B06D0F02B04D04FF432713C481C
:1022B00001F036FC3B4A936823F0F003A1680B431E
:1022C0009360236813F0010F5BD06368022B26D85C
:1022D0006368012B29D0022B2ED0324A126812F0EB
:1022E000020F00F0A7802F498A6822F003021343EF
:1022F0008B60FEF7D5F806466368012B23D0022BCE
:1023000030D0284B9B6813F00C0F3AD0FEF7C8F87A
:10231000801B41F288339842F3D9032070BD40F20C
:10232000CF211F4801F0FCFBD2E71E4A126812F4CD
:10233000003FD8D1012070BD1A4A126812F0007F08
:10234000D1D1012070BD174B9B6803F00C03042B07
:1023500017D0FEF7A5F8801B41F288339842F2D9D6
:10236000032070BD0F4B9B6803F00C03082B08D0B3
:10237000FEF796F8801B41F288339842F2D9032089
:1023800070BD064A136823F00F032B4313601368D4
:1023900003F00F039D4207D0012070BD003C0240B6
:1023A000B4A3000800380240236813F0040F1AD0C9
:1023B000E368002B18BFB3F5805F0DD0B3F5A05FC5
:1023C0000AD0B3F5C05F07D0B3F5E05F04D040F2A8
:1023D0001E31194801F0A4FB184A936823F4E05316
:1023E000E1680B439360236813F0080F1BD0236947
:1023F000002B18BFB3F5805F0DD0B3F5A05F0AD0F6
:10240000B3F5C05F07D0B3F5E05F04D040F22531EB
:10241000094801F085FB094A936823F46043216968
:1024200043EAC10393600020FEF712F8002070BD5C
:10243000012070BD012070BDB4A300080038024027
:10244000214B9B6803F00C03042B3AD0082B01D0DE
:102450001E4870471C4B586800F03F005B6813F43F
:10246000800F1ED01A4AB2FBF0F2174B586847F69D
:10247000C073184093FAA3F3B3FA83F3D84000FB78
:1024800002F0114B5B6803F440334FF4403292FA90
:10249000A2F2B2FA82F2D34001335B00B0FBF3F058
:1024A00070470A4AB2FBF0F2074B586847F6C07310
:1024B000184093FAA3F3B3FA83F3D84000FB02F079
:1024C000DFE70348704700BF003802400024F400F3
:1024D00080BA8C0108B5FFF7B3FF084B9B6803F087
:1024E000F003F02292FAA2F2B2FA82F2D340044A46
:1024F000D35CD840034B186008BD00BF00380240D1
:10250000A4A300080C000020F0B583B004460268C4
:10251000254B1340B3B1236813F0010F1CD0636B3C
:10252000002B18BFB3F5000F11D1204B9A6822F48D
:1025300000029A609A68616B0A439A60636B7BB38E
:1025400000270AE087211A4801F0EAFAE3E78D2123
:10255000174801F0E5FAE8E70027236813F4002F95
:1025600028D0E36B002B18BFB3F5801F06D0B3F55E
:10257000001F03D09D210E4801F0D2FA0B4AD2F879
:102580008C3023F44013E16B0B43C2F88C30E36BC7
:10259000B3F5801F06D0002B00F0158200250AE05D
:1025A0000127DAE70127F6E7F9FFFF0100380240CB
:1025B000E4A300080025236813F4801F1CD0236CBB
:1025C000002B18BFB3F5800F06D0B3F5000F03D072
:1025D000B121C14801F0A4FAC04AD2F88C3023F4EA
:1025E0004003216C0B43C2F88C30236CB3F5800F91
:1025F00000F0EB8103B90125236813F0807F00D040
:10260000012713F0200F40F0E281236813F0100F30
:1026100013D0A36B002B18BFB3F1807F40F03C8236
:10262000AE4BD3F88C2022F08072C3F88C20D3F804
:102630008C20A16B0A43C3F88C20236813F4804FCD
:1026400016D0636E002B18BFB3F5803F07D0B3F5EB
:10265000003F04D04FF485719F4801F061FA9F4A12
:10266000D2F8903023F44033616E0B43C2F89030BF
:10267000236813F4004F16D0A36E002B18BFB3F5D8
:10268000802F07D0B3F5002F04D04FF48A71924801
:1026900001F046FA914AD2F8903023F44023A16E1B
:1026A0000B43C2F89030236813F4803F16D0E36EDA
:1026B000002B18BFB3F5801F07D0B3F5001F04D05F
:1026C0004FF48F71844801F02BFA844AD2F890308D
:1026D00023F44013E16E0B43C2F89030236813F4E7
:1026E000003F16D0236F002B18BFB3F5800F07D023
:1026F000B3F5000F04D04FF49471774801F010FA4D
:10270000764AD2F8903023F44003216F0B43C2F88D
:102710009030236813F0400F14D0636C032B18BF64
:10272000012B06D9022B04D04FF499716A4801F0AD
:10273000F7F96A4AD2F8903023F00303616C0B4337
:10274000C2F89030236813F0800F16D0A36C002BD2
:1027500018BF042B08D00C2B06D0082B04D04FF444
:102760009E715D4801F0DCF95C4AD2F8903023F0AC
:102770000C03A16C0B43C2F89030236813F4807FE4
:1027800016D0E36C002B18BF102B08D0302B06D0CE
:10279000202B04D04FF4A3714F4801F0C1F94F4AE8
:1027A000D2F8903023F03003E16C0B43C2F8903044
:1027B000236813F4007F16D0236D002B18BF402B25
:1027C00008D0C02B06D0802B04D04FF4A87142480B
:1027D00001F0A6F9414AD2F8903023F0C003216DF0
:1027E0000B43C2F89030236813F4806F19D0636DE7
:1027F000002B18BFB3F5807F0AD0B3F5407F07D018
:10280000B3F5007F04D04FF4AD71334801F088F97F
:10281000324AD2F8903023F44073616D0B43C2F812
:102820009030236813F4006F19D0A36D002B18BFEC
:10283000B3F5806F0AD0B3F5406F07D0B3F5006FE2
:1028400004D04FF4B271244801F06AF9234AD2F857
:10285000903023F44063A16D0B43C2F8903023689D
:1028600013F4805F19D0E36D002B18BFB3F5805FC0
:102870000AD0B3F5405F07D0B3F5005F04D04FF442
:10288000B771154801F04CF9144AD2F8903023F48E
:102890004053E16D0B43C2F89030236813F4005F9E
:1028A0001ED0236E002B18BFB3F5804F0AD0B3F5AE
:1028B000404F07D0B3F5004F04D04FF4BC71064829
:1028C00001F02EF9054AD2F8903023F44043216EEE
:1028D0000B43C2F8903003E0E4A300080038024044
:1028E000236813F4800F0FD0A36FB3F1806F18BF6C
:1028F000002B40F0D7807F4AD2F8903023F08063DD
:10290000A16F0B43C2F89030236813F4001F14D05A
:10291000E36FB3F1006F18BF002B40F0C980754A18
:10292000D2F8903023F00063E16F0B43C2F890308F
:10293000E36FB3F1006F00F0C180236813F0080F5C
:1029400000D0012513F4802F19D0636F002B18BF1E
:10295000B3F1807F0AD0B3F1007F07D0B3F1407F9D
:1029600004D040F2A311644801F0DAF8614AD2F8C9
:10297000903023F04073616F0B43C2F890302368AE
:1029800013F4000F11D0D4F88030B3F1805F18BF7A
:10299000002B40F09580574AD2F8903023F08053B6
:1029A000D4F880100B43C2F89030002F40F08E8096
:1029B0002368B3F1007F00F08980002D40F0098288
:1029C000002003B0F0BD0125F5E5012712E6002344
:1029D0000193484B1A6C42F080521A641B6C03F04E
:1029E00080530193019B454A136843F4807313603D
:1029F000FDF756FD0646414B1B6813F4807F06D158
:102A0000FDF74EFD801B6428F5D90320D9E7394B2B
:102A10001B6F226B534013F4407F3FF4F6AD354BF0
:102A2000196F21F440701A6F42F480321A671A6FDE
:102A300022F480321A67186711F0020F12D1236B4B
:102A400003F44072B2F5407F1DD02A4A936823F404
:102A5000F813936027490B6F226BC2F30B021343E9
:102A60000B67D2E5FDF71CFD0646224B1B6F13F0EA
:102A7000020FE4D1FDF714FD801B41F28833984228
:102A8000F3D903209DE71B48826822F4F8121C4901
:102A900019400A438260DDE74FF48071164801F067
:102AA0003FF8BDE54FF4C171134801F039F822E752
:102AB0004FF4C671104801F033F830E701253CE7C8
:102AC00040F2AD110C4801F02BF864E7094A136895
:102AD00023F080631360FDF7E3FC0646054B1B689B
:102AE00013F0006F0ED0FDF7DBFC801B6428F5D9D6
:102AF000032066E700380240E4A3000800700040AD
:102B0000FFFCFF0F6368323BB3F5BF7F00F2E68046
:102B1000236813F0010F40D0636B002B3DD1A368F5
:102B2000023B052B00F2E080B44ED6F8843003F46B
:102B3000403E4FF4403090FAA0F3B3FA83F32EFAFC
:102B400003FED6F8842002F070624FF0706191FAB3
:102B5000A1F3B3FA83F3DA40636847F6C07797FAD4
:102B6000A7F7B7FA87F7BB4090FAA0F0B0FA80F069
:102B70000EFA00F0034391FAA1F1B1FA81F18A4013
:102B80001343A1684FF0E04292FAA2F2B2FA82F245
:102B900001FA02F21343C6F88430236813F4002FBD
:102BA00004D0E26BB2F5801F00F0A48013F4801F04
:102BB00004D0236CB3F5800F00F09C80236813F0E1
:102BC000807F3BD02369032B00F2EB808B4ED6F83D
:102BD000841001F070614FF0706E9EFAAEF3B3FA9C
:102BE00083F3D940D6F8842002F0E0424FF0E04071
:102BF00090FAA0F3B3FA83F3DA40636847F6C0773C
:102C000097FAA7F7B7FA87F7BB4027694FF4403C1C
:102C10009CFAACFCBCFA8CFC07FA0CF73B439EFA1E
:102C2000AEFEBEFA8EFE01FA0EF10B4390FAA0F052
:102C3000B0FA80F082401343C6F88430236813F062
:102C4000007F36D02369032B00F2B180A368023BDA
:102C5000052B00F2B280E368023B0D2B00F2B3803B
:102C6000636847F6C07292FAA2F2B2FA82F2934017
:102C700021694FF4403292FAA2F2B2FA82F201FADA
:102C800002F21343E1684FF0706292FAA2F2B2FAD4
:102C900082F201FA02F21343A1684FF0E04292FA85
:102CA000A2F2B2FA82F201FA02F21343534AC2F8D4
:102CB0008430524A136843F080631360FDF7F0FBE1
:102CC00006464E4B1B6813F0006F7FF476AEFDF79F
:102CD000E7FB801B6428F4D9032072E64FF4E4710B
:102CE000474800F01DFF13E74FF4E771444800F038
:102CF00017FF19E7E368023B0D2B46D8636A013BD7
:102D00001F2B48D83D4ED6F8843003F4403E4FF494
:102D1000403090FAA0F3B3FA83F32EFA03FED6F80C
:102D2000842002F0E0424FF0E04191FAA1F3B3FABF
:102D300083F3DA40636847F6C07797FAA7F7B7FAE4
:102D400087F7BB4090FAA0F0B0FA80F00EFA00F0DE
:102D50000343E7684FF0706090FAA0F0B0FA80F09B
:102D600007FA00F0034391FAA1F1B1FA81F18A4028
:102D70001343C6F88430D6F88C3023F01F03626A00
:102D8000013A1343C6F88C3018E74FF4EF711C4832
:102D900000F0C6FEB2E74FF4F071194800F0C0FE33
:102DA000B0E740F2F311164800F0BAFE0EE740F229
:102DB0000221134800F0B4FE48E740F20321104816
:102DC00000F0AEFE47E74FF401710D4800F0A8FE99
:102DD00046E70A4A136823F080531360FDF760FB4F
:102DE0000546064B1B6813F0005F0BD0FDF758FB40
:102DF000401B6428F5D90320E3E500BF00380240FA
:102E0000E4A300086369323BB3F5BF7F00F2CD80D5
:102E1000236813F4002F01D0E26B2AB113F4801F52
:102E20004ED0236C002B4BD1A369023B0D2B00F23B
:102E3000C280A36A013B1F2B00F2C380884DD5F8E6
:102E4000887007F440374FF4403090FAA0F3B3FA9B
:102E500083F3DF40D5F8882002F0E0424FF0E041F4
:102E600091FAA1F3B3FA83F3DA40636947F6C076C7
:102E700096FAA6F6B6FA86F6B34090FAA0F0B0FA43
:102E800080F007FA00F00343A6694FF0706090FAF3
:102E9000A0F0B0FA80F006FA00F0034391FAA1F135
:102EA000B1FA81F18A401343C5F88830D5F88C30E7
:102EB00023F4F853A26A013A43EA0223C5F88C309E
:102EC000236813F4001F03D0E36FB3F1006F7ED0CB
:102ED000236813F0080F54D0E369023B052B00F27E
:102EE000B780E36A002B18BFB3F5803F0AD0B3F573
:102EF000003F07D0B3F5403F04D040F25E2159486F
:102F000000F00EFE564DD5F8882002F070624FF0AA
:102F1000706090FAA0F3B3FA83F3DA40D5F8881022
:102F200001F440314FF4403696FAA6F3B3FA83F336
:102F3000D940636947F6C07797FAA7F7B7FA87F7DA
:102F4000BB4096FAA6F6B6FA86F6B1400B4390FA65
:102F5000A0F1B1FA81F18A401343E1694FF0E042F8
:102F600092FAA2F2B2FA82F201FA02F21343C5F81F
:102F70008830D5F88C3023F44033E26A1343C5F827
:102F80008C30374A136843F080531360FDF788FA9A
:102F90000446334B1B6813F0005F5FD1FDF780FAE6
:102FA000001B6428F5D903200BE540F232212D489F
:102FB00000F0B6FD2CE740F239212A4800F0B0FDC0
:102FC00037E740F23B21274800F0AAFD36E7236AA5
:102FD000032B37D8224ED6F8881001F070614FF0DD
:102FE000706595FAA5F3B3FA83F3D940D6F8882033
:102FF00002F0E0424FF0E04090FAA0F3B3FA83F31E
:10300000DA40636947F6C07797FAA7F7B7FA87F708
:10301000BB40276A4FF4403E9EFAAEFEBEFA8EFEDB
:1030200007FA0EF73B4395FAA5F5B5FA85F5A940E1
:103030000B4390FAA0F1B1FA81F18A401343C6F82C
:10304000883045E740F24E21064800F069FDC1E7AF
:1030500040F25D21034800F063FD42E70020B0E448
:1030600000380240E4A300082DE9F04105460F4670
:1030700016461C46FDF714FA80462B689B683B40B9
:10308000B34239D0B4F1FF3FF7D02CB1FDF708FAC5
:10309000A0EB08008442F0D82A68536823F0E003CC
:1030A00053606B68B3F5827F0CD0AB6AB3F5005FF9
:1030B00015D0012385F85D30002385F85C300320AE
:1030C000BDE8F081AB68B3F5806F18BFB3F5004F72
:1030D000EBD12A68136823F040031360E5E72A6800
:1030E000136823F400531B041B0C13602A68136835
:1030F00043F400531360DCE70020BDE8F0812DE9C4
:10310000F04182B007460D4614461E46FDF7C8F949
:10311000804602E0B6F1FF3F10D13A6893682B4039
:10312000A34241D0B5F5C06F08BF002CF2D1137B8C
:10313000DBB28DF807309DF80730EBE72EB1FDF7D5
:10314000AFF9A0EB08008642E7D83A68536823F04D
:10315000E00353607B68B3F5827F0BD0BB6AB3F5A5
:10316000005F14D0012387F85D30002387F85C30BE
:1031700003201AE0BB68B3F5806F18BFB3F5004FAA
:10318000ECD13A68136823F040031360E6E73A682D
:10319000136823F400531B041B0C13603A68136874
:1031A00043F400531360DDE7002002B0BDE8F08176
:1031B00038B504460D460B4600224FF4C051FFF7C8
:1031C0009EFF30B1236E43F020032366032318468D
:1031D00038BD2B46002280212046FFF745FF28B14D
:1031E000236E43F0200323660323F0E72B460022DF
:1031F0004FF4C0612046FFF782FF03460028E6D067
:10320000236E43F0200323660323E0E770470000AA
:10321000002800F0308110B504460368974A9849A9
:103220008B4218BF934213D002F5806293420FD0B5
:1032300002F5784293420BD002F5E052934207D058
:1032400002F58062934203D0CC218E4800F068FCE6
:103250006368002B18BFB3F5827F40F0D280A3686B
:10326000002B18BFB3F5806F06D0B3F5004F03D025
:10327000CE21844800F054FCE368B3F5706F18BFAA
:10328000B3F5606F24D0B3F5506F21D0B3F5406F24
:103290001ED0B3F5306F1BD0B3F5206F18D0B3F547
:1032A000106F15D0B3F5006F12D0B3F5E06F0FD0EB
:1032B000B3F5C06F0CD0B3F5A06F09D0B3F5806F34
:1032C00006D0B3F5407F03D0CF216E4800F028FC34
:1032D0002369002B18BF022B40F098806369012BF3
:1032E00003D9D121674800F01BFCA369B3F5007F27
:1032F00018BF002B06D0B3F5802F03D0D221614830
:1033000000F00EFC636B082B18BF002B40F083808D
:10331000E369002B18BF082B0FD0102B0DD0182BF2
:103320000BD0202B09D0282B07D0302B05D0382BE1
:1033300003D0D421534800F0F3FB236A002B18BFBD
:10334000802B6DD1636A002B18BF102B6DD1A36A3F
:10335000002B18BFB3F5005F6CD1E36A013B4FF659
:10336000FE7293426BD8236B022B6DD894F85D30BC
:10337000002B6ED0022384F85D302268136823F09E
:1033800040031360E368B3F5E06F68D90021B3F53B
:10339000706F18BFB3F5E06F01D00022A262226BFC
:1033A00022B9B3F5E06F5DD9022323632268636815
:1033B000A06803432069034360690343A06900F4E4
:1033C00000700343E0690343206A0343A06A034398
:1033D0001360236B022B48D02268638B03F0040335
:1033E000606A0343606B0343E06803430B4353602D
:1033F0002368E26A1A6100202066012384F85D30A8
:1034000010BDCD211F4800F08BFB28E7D0211D48BF
:1034100000F086FB62E7D3211A4800F081FB77E7D2
:10342000D521184800F07CFB8CE7D621154800F028
:1034300077FB8CE7D721134800F072FB8DE7D8218A
:10344000104800F06DFB8EE7D9210E4800F068FBB4
:103450008CE784F85C302046FFF7D8FE8AE74FF40B
:10346000805194E701232363A0E72268136843F4A3
:1034700000631360B0E70120704700BF00380040D0
:103480000030014018A40008F0B583B004460F4690
:1034900016461D468368002B18BFB3F5004F15D1A3
:1034A00094F85C30012B00F0CB80012384F85C3071
:1034B00094F85D30012B0FD0012384F85D30002398
:1034C00084F85C300223184603B0F0BD4FF4CC7191
:1034D0005D4800F025FBE3E7002E18BF002F36D033
:1034E000032384F85D3000232366A763A687E6875D
:1034F0002364A4F84430A4F84630A368B3F5004F21
:103500002CD0A36AB3F5005F2ED023681A6812F09E
:10351000400F03D11A6842F040021A60E368B3F525
:10352000E06F4FD9E38F002B63D02B460222114668
:103530002046FFF799FD20BB2368A26B1288DA6052
:10354000A36B0233A363E38F013BE387EAE7012325
:1035500084F85D30002284F85C20B4E722681368A8
:1035600043F480431360CCE72268136823F40053CC
:103570001B041B0C13602268136843F40053136090
:10358000C3E7012384F85D30002384F85C30032313
:1035900099E7012384F85D30002384F85C3003232D
:1035A00091E72B46022211462046FFF75DFD0028D9
:1035B00048D12268A36B591CA1631B781373E38F56
:1035C000013BE387E38FA3B1012BEAD02B46022214
:1035D00011462046FFF748FD0028DAD12368A26B88
:1035E0001288DA60A36B0233A363E38F023BE387A5
:1035F000E8E7A36AB3F5005F07D029462046FFF746
:10360000D7FD034638B103235DE72268136843F40E
:1036100080531360F1E7A26832B901922268D16841
:10362000019192680192019A012284F85D200022A2
:1036300084F85C20226E002A3FF445AF012342E764
:10364000022340E703233EE718A400087047000068
:1036500010B504460368234A934218BFB3F1804F64
:1036600034D0A2F57C42934230D002F5806293427E
:103670002CD002F58062934228D002F580629342FA
:1036800024D002F58062934220D002F5704293422A
:103690001CD002F57052934218D002F5806293421A
:1036A00014D002F58062934210D0A2F59832934272
:1036B0000CD002F58062934208D002F580629342FA
:1036C00004D040F25D11084800F02AFA2268D3685D
:1036D00043F00103D3602268136843F001031360D1
:1036E000002010BD0000014048A40008704770474A
:1036F0007047704710B5044603681A6912F0020F4C
:1037000011D0DA6812F0020F0DD06FF002021A61C8
:103710000123037603689B6913F0030F79D0FFF749
:10372000E6FF0023237623681A6912F0040F12D0F3
:10373000DA6812F0040F0ED06FF004021A6102234F
:10374000237623689B6913F4407F68D02046FFF7F7
:10375000CEFF0023237623681A6912F0080F12D0D7
:10376000DA6812F0080F0ED06FF008021A61042315
:1037700023762368DB6913F0030F57D02046FFF749
:10378000B6FF0023237623681A6912F0100F12D0B7
:10379000DA6812F0100F0ED06FF010021A610823D1
:1037A00023762368DB6913F4407F46D02046FFF779
:1037B0009EFF0023237623681A6912F0010F03D0BD
:1037C000DA6812F0010F3FD123681A6912F0800FF6
:1037D00003D0DA6812F0800F3DD123681A6912F421
:1037E000807F03D0DA6812F0800F3BD123681A691A
:1037F00012F0400F03D0DA6812F0400F39D123687D
:103800001A6912F0200F03D0DA6812F0200F37D1B6
:1038100010BDFFF76BFF2046FFF76AFF81E72046E8
:10382000FFF764FF2046FFF763FF92E72046FFF7AC
:103830005DFF2046FFF75CFFA3E72046FFF756FF3A
:103840002046FFF755FFB4E76FF001021A612046EA
:1038500003F0CCFEB8E76FF080021A61204600F05A
:1038600028F9BAE76FF080021A61204600F021F9CA
:10387000BCE76FF040021A612046FFF73AFFBEE74F
:103880006FF020021A61204600F012F9C0E7000034
:1038900070B40268454B984214BF00230123B0F175
:1038A000804F14BF1C4643F00104D4B9404DA842D8
:1038B00014BF002501253F4EB04253D0002D51D1F9
:1038C00005F1804505F58235A84214BF0025012584
:1038D00006F50066B04202D00DB9002502E00125D0
:1038E00000E001251DB122F070024D682A43002C32
:1038F0003CD12F4CA04214BF002401242D4DA842DE
:103900004BD0002C49D104F1804404F58234A0420C
:1039100014BF0024012405F50065A8423FD0002C07
:103920003DD1254CA04214BF0024012405F59A3551
:10393000A84236D0002C34D1204CA04214BF002421
:10394000012405F50065A8422DD064BB1C4CA042A3
:1039500014BF00240124A5F59635A84204D01CB953
:10396000002404E00125BDE7012400E001241CB18E
:1039700022F44072CC68224302608A68C2620A68FC
:103980008262104A904208BF43F001030BB10B69F9
:1039900003630123436170BC70470124E7E70124FE
:1039A000E5E70124E3E70124E1E700BF000001406F
:1039B000000800400004004000440140001800409E
:1039C000002000400004014000286BD010B50446E0
:1039D0000368354A934218BFB3F1804F33D0A2F544
:1039E0007C4293422FD002F5806293422BD002F5A5
:1039F0008062934227D002F58062934223D002F581
:103A0000806293421FD002F5704293421BD002F5B0
:103A10007052934217D002F58062934213D002F5A0
:103A2000806293420FD0A2F5983293420BD002F5F8
:103A30008062934207D002F58062934203D0D22184
:103A40001A4800F06DF8A368002B18BF102B09D09E
:103A5000202B07D0402B05D0602B03D0D321134857
:103A600000F05EF82369002B18BFB3F5807F06D005
:103A7000B3F5007F03D0D4210C4800F051F894F83E
:103A800039305BB1022384F83930211D2068FFF7FB
:103A9000FFFE012384F83930002010BD2046FFF7D7
:103AA000D5FDEFE7012070470000014048A4000861
:103AB00070477047FEE7000008B5034800F052F871
:103AC0000120FFF7F7FF00BF78A4000808B5034600
:103AD0000C4A12685AB10B4A1068033323F00303EF
:103AE0000344094A934206D8064A136008BD0749B1
:103AF000044A1160EFE705F01BFF0C2303604FF051
:103B0000FF3008BDD841002000FC0420B88600200A
:103B100001230360014B0B60704700BF04000020CD
:103B200008B50A460146024800F004F8FFF7C4FF52
:103B30008CA400080FB400B583B004AB53F8042B79
:103B400001938021064805F065FF002803DD01464A
:103B5000034800F047F803B05DF804EB04B0704789
:103B6000E041002010B5044605F020FF0146204644
:103B700000F038F80121024800F034F810BD00BF11
:103B800050A500082DE9F04385B004460F46435682
:103B90000BB10E461EE0042528462146ABBE044666
:103BA000384605B0BDE8F08314F9011B04AA1A4495
:103BB00002F8101C0133AB42F6D304AA13440022CE
:103BC00003F8102CE9464FF0040840464946ABBEC6
:103BD0008046761B002EE3D03546102E28BF1025D8
:103BE0000023E8E708B5FFF7CDFF08BD08B500F0F2
:103BF00099F8054B054A9A60D3F8882042F4700280
:103C0000C3F8882008BD00BF00ED00E000000008F8
:103C1000F8B504460D4617461E462748FFF78AFFAB
:103C200021682648FFF786FF61682548FFF782FF75
:103C3000A1682448FFF77EFFE1682348FFF77AFF79
:103C400021692248FFF776FF61692148FFF772FF7B
:103C5000A1692048FFF76EFFE1691F48FFF76AFF7F
:103C60001E48FFF767FF29461D48FFF763FF1D4CFD
:103C7000E16A1D48FFF75EFF216B1C48FFF75AFF02
:103C8000E16B1B48FFF756FF15F0800F0AD115F4C2
:103C9000004F0CD11748FFF74DFF06991648FFF764
:103CA00049FFF8BD39461548FFF744FFEFE73146B5
:103CB0001348FFF73FFFEDE7B8A40008C8A40008C9
:103CC000D8A40008E8A40008F8A4000808A5000883
:103CD00018A5000828A5000838A5000848A5000870
:103CE00054A5000800ED00E064A5000874A50008D4
:103CF00084A50008B4A50008BCA5000894A5000888
:103D0000A4A5000883691A888A4201D00020704760
:103D10000268033A012A03D8023383610120704705
:103D20000020704710B40F4AD2F8883043F4700373
:103D3000C2F888300C4B196841F00101196000206D
:103D400098601C680949214019600949596019683F
:103D500021F480211960D8604FF0006393605DF812
:103D6000044B704700ED00E000380240FFFFF6FE14
:103D700010300024224B9B6803F00C03042B14D05A
:103D8000082B16D01BB11F4A1F4B1A6002E01D4AB8
:103D90001D4B1A601A4B9B68C3F303131B4AD15C7B
:103DA000194A1368CB4013607047194A164B1A60C2
:103DB000F0E7134B5A685B6803F03F0312F4800F7F
:103DC00013D0134AB2FBF3F20D4B5B68C3F38813B5
:103DD00003FB02F30A4A5268C2F301420132520065
:103DE000B3FBF2F3084A1360D4E7064AB2FBF3F2DE
:103DF000034B5B68C3F3881303FB02F3EAE700BFDE
:103E0000003802400024F4000C00002000A6000846
:103E100080BA8C012DE9F843054689461646984636
:103E2000BDF82070044607E03B464246494620461E
:103E300000F02CFB013424B2AB199C42F4DBBDE84A
:103E4000F883000000B583B0064BB3F90030064A92
:103E5000B2F9002000900021084600F0CFFB03B02B
:103E60005DF804FB16490020104900202DE9F04FB1
:103E700089B08A4693460593BDF94870BDF94C1048
:103E80000491BDF8501000919A4505DCCDF814A0BE
:103E90009A465B4683461846049B9A4505DCCDF856
:103EA00010A09A463B4607461846059A049CA24233
:103EB00004DC049205943B465F469B46049B5345B5
:103EC0002ED01FFA8BFBBFB2ABEB07039BB2029362
:103ED000059CA3B2BDF81080A3EB080212B296466F
:103EE00080B2A0EB07091FFA89F91FFA8AF2A2EB48
:103EF00008080FFA88F8A0EB0B0081B20191D21AE2
:103F000012B20392544527D0013B1BB2049C0025FA
:103F10002E46CDF818B0F346CDF81CA09A4627E0FF
:103F20005F4501DC06DBBB46584507DBB84206DDD2
:103F3000074604E05B46BB461F46F5E78346A7EB12
:103F40000B0292B20132009B12B20499584600F063
:103F5000F9FA09B0BDE8F08F059BD7E7121A92B2C3
:103F60000132009B12B2214600F0ECFA013424B277
:103F7000544512DC96FBFBF23A4412B295FBF8F082
:103F8000384400B2029B1E4436B24D442DB28242E8
:103F9000E4DC034610461A46E0E7DDF818B0DDF829
:103FA0001CA0059BE61ABDF8043016FB03F636B2DA
:103FB000049BE51A15FB09F52DB209E0121A92B21D
:103FC0000132009B12B2214600F0BCFA013424B247
:103FD000A245BEDB039B96FBF3F25A4412B295FB5B
:103FE000F8F0384400B2019B1E4436B24D442DB265
:103FF0008242E3DC034610461A46DFE72DE9F0472C
:1040000084B090461F46BDF93060BDF8345080B290
:1040100089B2C21892B28B199BB2013B013A9BB292
:1040200092B200F0D7F9184B012299881868FDF771
:1040300005F9164BD3F80090B3F804A000225146BE
:104040004846FDF7FBF8002411E038F8143003EA85
:104050000502120A8DF804202B408DF8053001234B
:10406000022201A90A48FFF70FFA013424B206FB25
:1040700007F39C42E9DB012251464846FDF7DEF892
:1040800004B0BDE8F08700BF88A60008A0A600081D
:1040900068480020034600B90123014A13707047A5
:1040A00015490020024B1880024B1980704700BF51
:1040B000B2490020B0490020014B1870704700BF82
:1040C0001449002070B50646104B002299881868E4
:1040D000FDF7B4F80E4B002299881868FDF7AEF88A
:1040E0000C4B1C689D88002229462046FDF7A6F847
:1040F00009490E8001231A460848FFF7C5F9012235
:1041000029462046FDF79AF870BD00BF88A6000832
:10411000B0A60008A0A60008B44900206848002006
:1041200070B50646104B012299881868FDF786F88D
:104130000E4B002299881868FDF780F80C4B1C681C
:104140009D88002229462046FDF778F809490E800F
:1041500001231A460848FFF797F90122294620460D
:10416000FDF76CF870BD00BF88A60008B0A6000877
:10417000A0A60008B44900206848002038B5934B39
:104180001C689D88012229462046FDF757F8052026
:1041900000F03CFD002229462046FDF74FF8142090
:1041A00000F034FD012229462046FDF747F896200D
:1041B00000F02CFD864B002299881868FDF73EF828
:1041C000EF20FFF77FFF0320FFF7AAFF8020FFF714
:1041D000A7FF0220FFF7A4FFCF20FFF773FF002007
:1041E000FFF79EFFC120FFF79BFF3020FFF798FFEE
:1041F000ED20FFF767FF6420FFF792FF0320FFF732
:104200008FFF1220FFF78CFF8120FFF789FFE82046
:10421000FFF758FF8520FFF783FF0020FFF780FF9F
:104220007820FFF77DFFCB20FFF74CFF3920FFF709
:1042300077FF2C20FFF774FF0020FFF771FF342079
:10424000FFF76EFF0220FFF76BFFF720FFF73AFF43
:104250002020FFF765FFEA20FFF734FF0020FFF77B
:104260005FFF0020FFF75CFFC020FFF72BFF23203C
:10427000FFF756FFC120FFF725FF1020FFF750FF83
:10428000C520FFF71FFF3E20FFF74AFF2820FFF75A
:1042900047FFC720FFF716FF8620FFF741FF3620B4
:1042A000FFF710FF4820FFF73BFF3A20FFF70AFF18
:1042B0005520FFF735FFB120FFF704FF0020FFF77F
:1042C0002FFF1820FFF72CFFB620FFF7FBFE08207A
:1042D000FFF726FF8220FFF723FF2720FFF720FFAD
:1042E000F220FFF7EFFE0020FFF71AFF2620FFF76E
:1042F000E9FE0120FFF714FFE020FFF7E3FE0F20A7
:10430000FFF70EFF3120FFF70BFF2B20FFF708FF11
:104310000C20FFF705FF0E20FFF702FF0820FFF734
:10432000FFFE4E20FFF7FCFEF120FFF7F9FE3720DD
:10433000FFF7F6FE0720FFF7F3FE1020FFF7F0FE71
:104340000320FFF7EDFE0E20FFF7EAFE0920FFF73E
:10435000E7FE0020FFF7E4FEE120FFF7B3FE0020B8
:10436000FFF7DEFE0E20FFF7DBFE1420FFF7D8FE7E
:104370000320FFF7D5FE1120FFF7D2FE0720FFF73D
:10438000CFFE3120FFF7CCFEC120FFF7C9FE482049
:10439000FFF7C6FE0820FFF7C3FE0F20FFF7C0FEA1
:1043A0000C20FFF7BDFE3120FFF7BAFE3620FFF7E5
:1043B000B7FE0F20FFF7B4FE1120FFF783FE782031
:1043C00000F024FC2920FFF77DFE38BDA8A60008D8
:1043D000A0A60008F8B507460D4616461C462A203A
:1043E000FFF770FE380AFFF79BFEF8B2FFF798FE62
:1043F000300AFFF795FEF0B2FFF792FE2B20FFF791
:1044000061FE280AFFF78CFE2846FFF789FE200A86
:10441000FFF786FE2046FFF783FE2C20FFF752FEB3
:10442000F8BD0000F0B599B00446134B01229988FD
:104430001868FCF703FF114B1D689E880022314667
:104440002846FCF7FBFE0E4B1C800E4C01271797ED
:1044500016930D4B1593542204F11001684605F094
:104460006DFA94E80F0003F093FB3A463146284674
:10447000FCF7E4FE19B0F0BD88A60008A0A600086D
:10448000B449002068480020B84900202DE9F041D7
:1044900098B01E46244BB3F90030834240DD1446E9
:1044A000224BB3F900308B423ADD8A18013A9A4226
:1044B00001DB5C1A24B280B289B20B199BB2013BBA
:1044C0009BB20246FFF786FF194B012299881868B4
:1044D000FCF7B4FE174B1F68B3F804800022414676
:1044E0003846FCF7ABFE12E0134B1E80134C012242
:1044F00017921693124B1593542204F1100168463B
:1045000005F01CFA94E80F0003F042FB2C46631EF2
:104510001DB2002CE8D1012241463846FCF78EFE40
:1045200018B0BDE8F08100BF1049002016490020F6
:1045300088A60008A0A60008B4490020684800200A
:10454000B84900202DE9F04198B01E46244BB3F93C
:104550000030834240DD1446224AB2F900208A42EC
:104560003ADD0219013A9A4201DB1C1A24B280B2E8
:1045700089B2021992B2013A0B4692B2FFF72AFFB2
:10458000194B012299881868FCF758FE174B1F68D1
:10459000B3F80480002241463846FCF74FFE12E093
:1045A000134B1E80134C012217921693124B159336
:1045B000542204F11001684605F0C0F994E80F0098
:1045C00003F0E6FA2C46631E1DB2002CE8D101224E
:1045D00041463846FCF732FE18B0BDE8F08100BF16
:1045E000104900201649002088A60008A0A600084F
:1045F000B449002068480020B84900202DE9F04760
:1046000098B01F46BDF880602D4BB3F9003083424F
:1046100052DD90462B4AB2F900208A424CDD00EB75
:104620000804013C9C4202DB1B1A0FFA83F8CB19E9
:10463000013B934201DB521A17B280B289B200EB00
:10464000080292B2CB199BB2013B013A9BB292B2E3
:10465000FFF7C0FE1C4B012299881868FCF7EEFD9D
:104660001A4BD3F80090B3F804A0002251464846F4
:10467000FCF7E4FD17E0164B1E80164C0122179242
:104680001693154B1593542204F11001684605F05A
:1046900055F994E80F0003F07BFA013D2DB2002D8F
:1046A000E9DC013F3FB2002F01DD4546F7E701227B
:1046B00051464846FCF7C2FD18B0BDE8F08700BF80
:1046C000104900201649002088A60008A0A600086E
:1046D000B449002068480020B849002010B50446BD
:1046E0003720FFF7EFFC200AFFF71AFDE0B2FFF7D3
:1046F00017FD10BD43181344B3F5A07F00D07047D9
:1047000070B514460D4606463320FFF7DBFC300A31
:10471000FFF706FDF0B2FFF703FD280AFFF700FDE3
:10472000E8B2FFF7FDFC200AFFF7FAFCE0B2FFF762
:10473000F7FC70BD10B504463620FFF7C3FC04F04B
:10474000030003282ED8DFE800F0020D18234820CC
:10475000FFF7E6FCF022144B1A804FF4A072134BC3
:104760001A8010BD2820FFF7DBFC4FF4A0720E4B1F
:104770001A80F0220D4B1A8010BD8820FFF7D0FC64
:10478000F022094B1A804FF4A072084B1A8010BD1A
:10479000E820FFF7C5FC4FF4A072034B1A80F0220B
:1047A000024B1A8010BD00BF10490020164900209E
:1047B00030B587B00C4A136B43F0100313634FF40A
:1047C0000055019501230293022204920393074CA2
:1047D00001A92046FCF79AFB002229462046FCF757
:1047E0002DFD07B030BD00BF003802400010024070
:1047F0000A4B1B680A4AA2FB03239B09013BB3F146
:10480000807F09D2074A5360F021074B83F82310B9
:104810000023936007231360704700BF0C00002043
:10482000D34D621010E000E000ED00E0034B1B6888
:104830001BB1024A1368013B13607047CC4900204A
:1048400030B595B000240194234B1A6C42F080528D
:104850001A641B6C03F080530193019B02941F4B5D
:104860001A6842F440421A601B6803F44043029302
:10487000029B012308934FF4803309934FF4800384
:104880000F931A2310934FF4D873119302251295A6
:10489000082313930E9508A8FDF792F9FDF750F938
:1048A0000F230393049505944FF4A05306934FF4FC
:1048B00080530793062103A8FDF730FCFDF70AFE9D
:1048C000074BA3FB00308009FCF7F4F90420FCF748
:1048D00007FA15B030BD00BF00380240007000403C
:1048E000D34D621010B5BFF34F8FBFF36F8F1C4BCA
:1048F0000021C3F850125A6942F400325A61BFF3E2
:104900004F8FBFF36F8FC3F88410BFF34F8FD3F86F
:104910008040C4F34E300FE01A4643F6E07303EADA
:10492000401343EA82730E49C1F86032531E002AD5
:10493000F2D1431E18B11846C4F3C902EDE7BFF324
:104940004F8F4B6943F480334B61BFF34F8FBFF3FD
:104950006F8FFBF791FDFFF773FFFFF70BFA10BDA9
:1049600000ED00E010B586B00022684B1A80684B5D
:104970001A80684B1A706421674B1980674B1A7054
:10498000674B1A700092674B596C41F480715964FF
:10499000596C01F48071009100990192596C41F4B5
:1049A00000715964596C01F40071019101990292EE
:1049B000596C41F480615964596C01F48061029131
:1049C00002990392196B41F001011963196B01F00F
:1049D0000101039103990492196B41F002011963DB
:1049E000196B01F00201049104990592196B41F0D1
:1049F00004011963196B01F0040105910599596AC5
:104A000041F480715962596A21F4807159624648B3
:104A1000A3F58C3303604FF48033436082600261FE
:104A20000123836102624262C2628262C260C36128
:104A300002634261FBF7E8FD18B1394A137801338C
:104A400013703A483A4B03604FF4803343600023BD
:104A5000836003610122826103624362C3628362F5
:104A6000C360C26103634361FBF7CEFD18B12C4AFA
:104A70001378013313702F482F4B03604FF48033AA
:104A80004360002383600361012282610362436209
:104A9000C3628362C360C26103634361FBF7B4FD19
:104AA00018B11F4A137801331370244909230B608E
:104AB00001234B608B600020C860214A03241460EE
:104AC00053609360D0601F4A022414605360936067
:104AD000D0601548FBF780FF18B1114A13780133F5
:104AE000137017491148FBF777FF18B10C4A137878
:104AF0000133137013490F48FBF76EFF18B1084AD2
:104B000013780133137006B010BD00BFF4460020C7
:104B10000C480020D148002018490020614800209E
:104B200060480020003802407C470020C447002035
:104B3000002101405849002000220140F846002091
:104B4000A04900205048002008B564211848FBF710
:104B5000E5FE64211748FBF7E1FE64211648FBF7E8
:104B6000DDFE00B108BD1248FCF72CF810F4007F00
:104B7000F8D01048FCF726F810F4007FF2D00E4869
:104B8000FCF720F810F4007FECD00948FBF721FF78
:104B900080B20A4B18800748FBF71BFF80B2084B16
:104BA00018800548FBF715FF80B2064B1880D9E73F
:104BB0007C470020C447002058490020F4460020CC
:104BC0000C480020CE48002008B50C48FBF70CFE2E
:104BD00018B10B4A1378013313700A48FBF704FE2F
:104BE00018B1074A1378013313700748FBF7FCFD2F
:104BF00018B1034A13780133137008BD7C470020B5
:104C000060480020C447002058490020034B18602A
:104C1000024B1B68002BFBD1704700BF10480020DF
:104C20002DE9F04F87B0802301934FF00208CDF8B3
:104C300010800125029500240594039401A9B94828
:104C4000FCF764F94FF0400ACDF804A0CDF81080CD
:104C500002950594039401A9B248FCF757F94FF463
:104C6000005301930494112702970594039401A91A
:104C7000AD48FCF74BF922464FF40051AA48FCF727
:104C8000DDFA0195CDF8108002940395059401A9F1
:104C9000A648FCF73BF9CDF80480CDF810800294CB
:104CA0000395059401A9A148FCF730F94FF400736E
:104CB0000193CDF8108002940395059401A99948B9
:104CC000FCF724F94FF0040BCDF804B04FF00309C2
:104CD000CDF8089003940DEB0B019548FCF716F9FD
:104CE00008260196CDF8089003940DEB0B0190482F
:104CF000FCF70CF930230193CDF8089003940DEBE9
:104D00000B018B48FCF702F9CDF804B0029504942E
:104D100003940DEB0B018348FCF7F8F82A4659463B
:104D20008048FCF78BFA8023019302950494039446
:104D30000DEB0B017E48FCF7E9F8224680217C4808
:104D4000FCF77CFACDF804800295049403940DEBF3
:104D50000B017548FCF7DAF8224641467248FCF729
:104D60006DFACDF804A00295049403940DEB0B01A9
:104D70006F48FCF7CBF82A4651466D48FCF75EFABF
:104D800001950295049403940DEB0B016848FCF720
:104D9000BDF8224629466648FCF750FACDF804A033
:104DA0000295049403940DEB0B016048FCF7AEF8F8
:104DB0002A4651465D48FCF741FA01960297049451
:104DC00003940DEB0B015948FCF7A0F8224631463D
:104DD0005648FCF733FA4FF40043019302950494CC
:104DE00003940DEB0B014F48FCF790F82A464FF463
:104DF00000414C48FCF722FA4FF40053019302950E
:104E0000049403940DEB0B014648FCF77FF82A4607
:104E10004FF400514348FCF711FA20230193029507
:104E2000049403940DEB0B014048FCF76FF82A46FD
:104E300020213E48FCF702FA1027019702950494BE
:104E400003940DEB0B013948FCF760F82A4639460C
:104E50003648FCF7F3F94FF4006701970295049484
:104E600003940DEB0B013348FCF750F82A46394602
:104E70003048FCF7E3F94FF480470197029504941A
:104E800003940DEB0B012948FCF740F82A463946FC
:104E90002648FCF7D3F94FF480530193CDF80890DE
:104EA000049403940DEB0B012248FCF72FF82246E3
:104EB0004FF480511F48FCF7C1F9CDF80480CDF8BC
:104EC0000890049403940DEB0B011648FCF71EF8B0
:104ED0004FF48068CDF804800295049403940DEBA0
:104EE0000B011448FCF712F82A4641461148FCF71A
:104EF000A5F901970295049403940DEB0B010D485D
:104F0000FCF704F82A4639460A48FCF797F92023AB
:104F100001930294049403950DEB0B010548FBF7F4
:104F2000F5FF09E0000402400008024000100240C2
:104F300000000240000C0240CDF804A0029404944A
:104F400003950DEB0B015F48FBF7E0FF0196029420
:104F5000049403950DEB0B015A48FBF7D7FF802310
:104F600001930294049403950DEB0B015548FBF754
:104F7000CDFF4FF4005301930295049403940DEB7D
:104F80000B015148FBF7C2FF22464FF400514E4837
:104F9000FCF754F94FF48079CDF80490049402950D
:104FA00003950DEB0B014948FBF7B0FF224649463C
:104FB0004648FCF743F94FF40043019304940295EB
:104FC00003940DEB0B014048FBF7A0FF2A464FF47A
:104FD00000413D48FCF732F9802301930494029488
:104FE00003940DEB0B013848FBF790FFCDF804B0AC
:104FF0000494029503940DEB0B013548FBF786FFF3
:105000002A4659463248FCF719F9CDF80480049431
:10501000029503940DEB0B012B48FBF777FF2A4613
:1050200041462948FCF70AF9CDF80490049402950A
:1050300003940DEB0B012348FBF768FF224649461A
:105040002048FCF7FBF801960494029503940DEBBD
:105050000B011F48FBF75AFF224631461C48FCF75C
:10506000EDF8CDF804900494029503940DEB0B0138
:105070001548FBF74BFF224631461348FCF7DEF894
:10508000CDF804B00494029503940DEB0B010E4887
:10509000FBF73CFF224659460B48FCF7CFF8CDF80A
:1050A00004900494029503940DEB0B010948FBF75F
:1050B0002DFF2A4649460748FCF7C0F807B0BDE86F
:1050C000F08F00BF000C02400010024000000240C0
:1050D0000008024000040240F0B587B00E4B9A88E9
:1050E00001920227049712260296012503950424B3
:1050F00005940DEB04011868FBF708FF074B9A882D
:10510000019204970296039505940DEB040118682B
:10511000FBF7FCFE07B0F0BD68A6000870A600080B
:1051200000B585B08DF80C008DF80D106423009348
:10513000022303AAE0210348FCF7F6FA05B05DF864
:1051400004FB00BFD4480020F8B51E4603FB012431
:10515000E401B4FBF3F4A4F50074D201B2FBF3F75D
:1051600003FB1727C5B2E1B22846FFF7D9FF681C39
:10517000C4F30721C0B2FFF7D3FFC4F30144B90061
:10518000C9B22144A81CC9B2C0B2FFF7C9FFE81CCC
:10519000C7F38711C0B2FFF7C3FF281DC7F38731DC
:1051A000C0B2FFF7BDFF681DC7F38751C0B2FFF75C
:1051B000B7FFA81DF1B2C0B2FFF7B2FFE81DC6F3FA
:1051C0000721C0B2FFF7ACFF05F10800C6F30741A5
:1051D000C0B2FFF7A5FF05F10900C6F30561C0B233
:1051E000FFF79EFFF8BD000030B587B08DF80F00C7
:1051F00000238DF817300B4C6425009501230DF129
:105200000F02E0212046FCF78FFA009501230DF1F3
:105210001702E0212046FCF731FB9DF8170007B08C
:1052200030BD00BFD448002070B50E4900EB4002ED
:105230008B188E5C5D789C786CB10146FF2C0BD08E
:105240003046FFF7D1FF20EA0401C9B22C402143C8
:105250003046FFF765FF70BD29463046FFF760FF17
:1052600070BD00BF1000002010B51021E620FFF730
:1052700057FFE521F120FFF753FF002403E020460C
:10528000FFF7D2FF0134B4F5AF7FF8DB0121DA205C
:10529000FFF7AAFF00F0040005E00121DA20FFF784
:1052A000A3FF00F004000028F7D101213120FFF70F
:1052B0009BFF00F07F013120FFF732FF0221F62033
:1052C000FFF72EFF6521F120FFF72AFF0121DA20E9
:1052D000FFF78AFF00F0150005E00121DA20FFF753
:1052E00083FF00F015000028F7D10121EB20FFF724
:1052F0007BFF01462D20FFF713FF0121EC20FFF774
:1053000073FF01462E20FFF70BFF01212F20FFF72F
:105310006BFF40B220F003040121ED20FFF764FF92
:1053200000F003012143C9B22F20FFF7F9FE01214C
:105330003120FFF759FF60F07F01C9B23120FFF73C
:10534000EFFE0021E620FFF7EBFEC1211F20FFF753
:10535000E7FE40F2BF2340F2B922C9213520FFF712
:10536000F3FEC0211F20FFF7DBFE10BD2DE9F04149
:105370004400124B9C421ED9114B9C421BD8114B2E
:10538000D3E90067002522462B463046394604F013
:1053900047F9804622462B463046394604F040F90C
:1053A00001E052086408084B9C42FAD82346414663
:1053B0003520FFF7C9FEBDE8F08100BF3F4B4C0030
:1053C0008093DC1428040020A086010010B4BFF3F1
:1053D0004F8FBFF36F8F1A4B0021C3F850125A69D9
:1053E00042F400325A61BFF34F8FBFF36F8FC3F89F
:1053F0008410BFF34F8FD3F88040C4F34E300FE0DA
:105400001A4643F6E07303EA401343EA82730C49F9
:10541000C1F86032531E002AF2D1431E18B118465B
:10542000C4F3C902EDE7BFF34F8F4B6943F48033F8
:105430004B61BFF34F8FBFF36F8F5DF8044B704725
:1054400000ED00E0022956DC30B4002305E02A4CD0
:1054500004EB8304002525600133B3F5007F41DAB6
:10546000012913D0022923D00029F5D11418C4F53D
:105470000074A342EBDDC2F50074A342E7DA1E4CD0
:1054800004EB83044FF07E552560E5E7934209DD88
:105490001418A34206DA184C04EB83044FF07E552F
:1054A0002560D9E7144C04EB830400252560D3E77D
:1054B0001418C4F50075AB4203DDC2F50075AB42AC
:1054C00003DB934208DDA34206DA0B4C04EB8304B2
:1054D0004FF07E552560BFE7074C04EB83040025A1
:1054E0002560B9E7044B03F5806100220A6003F2EE
:1054F000FC731A6030BC7047D8490020F0B4002417
:1055000029E06300E200871897ED007A1F4DAE187E
:10551000D6ED006A27EE267A161D064496ED006A3F
:1055200001339B001D44D5ED007A26EE276A37EE45
:10553000467A174D2A4482ED007A96ED007A67EE9E
:10554000877A97ED007A66EE876A77EEA67A2B4423
:10555000C3ED007A0134FF2CD3DD00230BE0002BD8
:105560000EDB00EB830403EB4105094A02EB8502E5
:10557000126822600133B3F5007FF0DBF0BC7047A6
:1055800000EB830200241460EBE700BFD849002041
:10559000887A002088B000220092294B196B41F0D4
:1055A00001011963196B01F0010100910099019249
:1055B000196B41F002011963196B01F002010191AD
:1055C00001990292196B41F004011963196B01F002
:1055D0000401029102990392196B41F008011963C9
:1055E000196B01F00801039103990492196B41F0C2
:1055F00010011963196B01F01001049104990592CF
:10560000196B41F400111963196B01F40011059134
:1056100005990692196B41F480011963196B01F425
:1056200080010691069907921A6C42F480021A646E
:105630001B6C03F480030793079B08B0704700BFFF
:1056400000380240104B1A6B22F001021A631A6BE9
:1056500022F002021A631A6B22F004021A631A6B18
:1056600022F008021A631A6B22F010021A631A6BF6
:1056700022F400121A631A6B22F480021A631A6C65
:1056800022F480021A64704700380240024A13680C
:1056900001331360704700BF644200200023064AB4
:1056A0001360064A13607F21054A1160054A1360A2
:1056B0006422054B1A607047D8510020D44900205D
:1056C00000620020DC510020AC8600202F4B1B78AC
:1056D00003B1704710B52E4B99881868FBF79AFDF7
:1056E00044002C4B99881868FBF794FD20442A4B02
:1056F00018602A4B1B68984223D00BB9012806D0AA
:10570000012B23D0032B25D0022B27D00020244BA4
:105710001860244B99881868FBF77CFD40BB204B30
:105720001B6803B3204A1388013313801E4B1B8868
:105730005B081E4A1188B3FBF1F201FB12331C4ACD
:105740001380154B1A68154B1A6010BD0328D9D168
:105750001846DCE70228D7D10120D8E708B100209D
:10576000D5E70120D3E7104A1388013B1380DDE71A
:105770000B4B1B6823B10F4A136801331360E0E73A
:105780000C4A1368013B1360DBE700BF784200203E
:10579000F8A6000800A70008D4490020D85100202E
:1057A0000C7A002008A700089E46002058410020DF
:1057B000A0460020B086002008B50B49D1E900239F
:1057C000013243F10003C1E90023FFF72FF8FFF78F
:1057D0007DFFFAF75DFE054B1B681BB1034A13689A
:1057E000013B136008BD00BFA84600201048002000
:1057F000034B1868002801DB401070470130FBE7BD
:10580000B0860020002308E000EB83010B4A02EB86
:10581000830212680A6001339BB2094A1288B3EB13
:10582000420FF1DB05E000EB830200211160013340
:105830009BB2B3F5007FF6D3704700BF8C82002087
:105840003C4100202DE9F04F83B0824689463B4B16
:105850001A6810460192B3F804B000225946FBF7CB
:10586000EDFC374B1F68B3F80480002241463846F0
:10587000FBF7E4FC334B1D689E8800223146284626
:10588000FBF7DCFC012231462846FBF7D7FC00245D
:1058900015E0C4F107024AFA02F202F001024146A1
:1058A0003846FBF7CBFC002231462846FBF7C6FC06
:1058B000012231462846FBF7C1FC0134E4B2072C33
:1058C000E7D901225946019C2046FBF7B7FC00228C
:1058D00059462046FBF7B2FC012241463846FBF709
:1058E000ADFC002231462846FBF7A8FC01223146D8
:1058F0002846FBF7A3FC002415E0C4F1070249FA8F
:1059000002F202F0010241463846FBF797FC002202
:1059100031462846FBF792FC012231462846FBF728
:105920008DFC0134E4B2072CE7D9012259460198D5
:10593000FBF784FC03B0BDE8F08F00BF58A6000859
:1059400030A6000838A6000808B502284DD0032864
:1059500000F0948000B108BD6D4B01229988186851
:10596000FBF76CFC6B4B002299881868FBF766FC10
:10597000694B002299881868FBF760FC674B01228D
:1059800099881868FBF75AFC654B002299881868BB
:10599000FBF754FC634B012299881868FBF74EFC17
:1059A000614B012299881868FBF748FC5F4B002285
:1059B00099881868FBF742FC5D4B002299881868AB
:1059C000FBF73CFC5B4B002299881868FBF736FC20
:1059D000594B012299881868FBF730FC574B00227D
:1059E00099881868FBF72AFC08BD494B0122998861
:1059F0001868FBF723FC474B002299881868FBF7CF
:105A00001DFC454B002299881868FBF717FC434B97
:105A1000012299881868FBF711FC414B00229988F4
:105A20001868FBF70BFC3F4B012299881868FBF7BD
:105A300005FC3D4B012299881868FBF7FFFB3B4BA7
:105A4000002299881868FBF7F9FB394B01229988E5
:105A50001868FBF7F3FB374B012299881868FBF7AE
:105A6000EDFB354B012299881868FBF7E7FB334BB8
:105A7000002299881868FBF7E1FB08BD244B00223F
:105A800099881868FBF7DAFB224B0122998818687D
:105A9000FBF7D4FB204B002299881868FBF7CEFB5C
:105AA0001E4B012299881868FBF7C8FB1C4B00228B
:105AB00099881868FBF7C2FB1A4B0122998818686D
:105AC000FBF7BCFB184B012299881868FBF7B6FB63
